:020000040800F2
:1000000078930020190B0008150400081704000855
:100010001B0400081F04000823040008000000005F
:10002000000000000000000000000000270400089D
:100030002904000800000000CD480008B92A000883
:10004000330B0008330B0008330B0008330B000898
:10005000330B0008330B0008330B0008330B000888
:10006000330B0008330B0008330B0008330B000878
:10007000330B0008330B0008330B0008330B000868
:10008000330B0008330B0008330B0008330B000858
:10009000330B0008330B0008330B0008330B000848
:1000A000330B0008330B0008330B0008330B000838
:1000B000330B0008330B0008330B0008330B000828
:1000C000330B0008330B0008330B0008330B000818
:1000D000330B0008D3070008EF080008330B0008B3
:1000E000330B0008330B0008330B0008330B0008F8
:1000F000330B0008330B0008330B0008330B0008E8
:10010000330B0008330B0008330B0008330B0008D7
:10011000330B0008330B0008330B0008330B0008C7
:10012000330B0008330B0008330B0008330B0008B7
:1001300000F002F800F068F80AA090E8000C824491
:100140008344AAF10107DA4501D100F05DF8AFF26E
:10015000090EBAE80F0013F0010F18BFFB1A43F0A5
:1001600001031847244C0000544C00000A444FF08F
:10017000000C10F8013B13F0070408BF10F8014B06
:100180001D1108BF10F8015B641E05D010F8016B4B
:10019000641E01F8016BF9D113F0080F1EBF10F8AF
:1001A000014BAD1C0C1B09D16D1E58BF01F801CBD2
:1001B000FAD505E014F8016B01F8016B6D1EF9D555
:1001C0009142D6D370470000103A24BF78C878C156
:1001D000FAD8520724BF30C830C144BF04680C604D
:1001E000704700000023002400250026103A28BF95
:1001F00078C1FBD8520728BF30C148BF0B60704799
:100200001FB51FBD10B510BDDFF80CD0FFF7F8FF0C
:1002100004F040F804F038FB0006002003B4FFF7B8
:10022000F1FF03BC04F03AFBEFF3058070470000D8
:1002300070B5002400250EE06D1C6048006808B908
:10024000012000E000205D490860C82002F057FB53
:10025000044604B170BDEFE710B58AB00024002059
:10026000ADF8080056A00890AFF23B0001904FF4A3
:10027000347007908020099001A9534802F042F899
:10028000044614B120460AB010BD2046FBE770B505
:100290000024002524E06D1C4C48008858B14C4ACD
:1002A0004CA14E4800F0A5FBC821494804F06EFA65
:1002B0000020464908804A48008858B1494A45A16B
:1002C000494800F096FBC821464804F05FFA002038
:1002D000434908800A2002F012FB044604B170BDB5
:1002E000D9E710B58AB000240020ADF808003FA07F
:1002F0000890AFF2650001904FF4347007908020B1
:10030000099001A9304801F0FDFF044614B12046D0
:100310000AB010BD2046FBE738B5002400F0A0F974
:1003200000F076F94FF4165000F004FA4FF416502E
:1003300000F08CFA00202F4B024601460090252049
:1003400004F0F0F800202C4B0246014600902620D5
:1003500004F0E8F829A1214800F04BFB28A11F4830
:1003600000F047FB0120154908604FF4FA7000F0D7
:10037000B4F900202649C1F8B0014FF4FA7000F03A
:10038000ACF901200D4908604FF4FA7000F0A5F9AE
:1003900000201F49C1F8B0014FF4FA7000F09DF938
:1003A000FFF75AFF04460CB1204638BDFFF799FF0E
:1003B00004460CB12046F8E70020F6E7B0012142E0
:1003C0007461736B31000000000600201C060020E1
:1003D000D406002025730D0A0000000000380140FB
:1003E0001E0600209C070020004400407461736BCF
:1003F00032000000D3070008EF0800080D0A0000D3
:1004000068656C6C6F206C6974656F730D0A000011
:1004100000002142704700BFFEE700BFFEE700BFBB
:10042000FEE700BFFEE77047704770477047000067
:100430000CB50020019000906C48006840F48030BA
:100440006A49086000BF6948006800F40030009005
:100450000198401C0190009818B90198B0F5A06F60
:10046000F1D16248006800F4003010B10120009022
:1004700001E0002000900098012843D15C4800680A
:1004800040F010005A4908600846006820F0030058
:1004900008600846006840F0020008605348406861
:1004A000524948600846406848600846406840F441
:1004B000806048600846406820F47C104860084628
:1004C000406840F4E81048600846006840F08070DA
:1004D000086000BF4548006800F000700028F9D0AF
:1004E0004248406820F003004049486008464068A0
:1004F00040F00200486000BF3C48406800F00C003B
:100500000828F9D10CBD10B5FFF792FF10BD10B54A
:100510003648006840F001003449086008464068E9
:10052000344908403149486008460068324908406B
:100530002E4908600846006820F4802008600846BC
:10054000406820F4FE0048604FF41F008860FFF709
:10055000DAFF4FF000602949086010BD10B5002196
:1005600000200022214B5B6803F00C0121B104291B
:1005700006D0082928D107E0214B224C236027E030
:100580001F4B204C236023E0184B5B6803F4701072
:10059000164B5B6803F48032022303EB904022B9D0
:1005A000194B4343174C23600DE0104B5B6803F479
:1005B000003323B1144B4343124C236003E0104B30
:1005C0004343104C236003E00D4B0E4C236000BFEF
:1005D00000BF064B5B68C3F303130C4CE15C094B93
:1005E0001B68CB40074C236010BD00000010024088
:1005F000002002400000FFF8FFFFF6FE08ED00E0DB
:1006000000127A000406002000093D0008060020C0
:1006100008B50121242000F0BBFD4FF48050ADF857
:10062000000010208DF8030003208DF802006946B9
:10063000094800F0F1FA4FF48051074800F099FBA7
:100640000420ADF800006946044800F0E5FA0421F2
:10065000024800F08EFB08BD000801400014014074
:1006600010B56FF0040001F04AF82E4800682E49DA
:10067000B0FBF1F02D4908700846007800EB40010E
:10068000C1EBC0104FF6FF7101EAC0002849088095
:1006900010BD0146254A12784A434FF0E0235A61C3
:1006A00000229A611A46126942F001021A6100BFE3
:1006B0004FF0E022106900F001021AB100F480321C
:1006C000002AF5D04FF0E022126922F001024FF02B
:1006D000E0231A6100229A6170470146144A128889
:1006E0004A434FF0E0235A6100229A611A46126988
:1006F00042F001021A6100BF4FF0E022106900F0E1
:1007000001021AB100F48032002AF5D04FF0E02245
:10071000126922F001024FF0E0231A6100229A616F
:10072000704700000406002000127A00180600201E
:100730001A06002010B586B00446012144F20400D8
:1007400000F026FDEC4800F087FD4FF40070ADF896
:10075000140003208DF8160018208DF8170005A945
:10076000E64800F059FA4FF48060ADF81400042018
:100770008DF8170005A9E14800F04EFA25208DF804
:10078000000003208DF801008DF8020001208DF893
:100790000300684600F069FF01940020ADF80800EE
:1007A000ADF80A00ADF80C00ADF810000C20ADF863
:1007B0000E0001A9D04800F092FD012240F225511F
:1007C000CD4800F024FE0121CB4800F014FE06B015
:1007D00010BD10B540F22551C74800F0FDFE10B322
:1007E000C54800F079FEC4B2C548008800F4004056
:1007F000C8B9C348008800F4804060B10A2C03D017
:100800000020BF49088020E0BD48008840F4004037
:10081000BB49088019E00D2C06D1B948008840F486
:100820008040B749088010E0B5480088C0F30D004B
:10083000B4490C54B2480088401CB14908800846AD
:100840000088C72801DD0020088010BD10B586B0E3
:1008500004460121480400F0A8FC0121042000F016
:1008600097FCA94800F0F8FC0420ADF81400032020
:100870008DF8160018208DF8170005A99F4800F084
:10088000CBF90820ADF8140004208DF8170005A955
:100890009A4800F0C1F926208DF8000002208DF85A
:1008A000010003208DF8020001208DF80300684646
:1008B00000F0DBFE01940020ADF80800ADF80A005E
:1008C000ADF80C00ADF810000C20ADF80E0001A939
:1008D0008D4800F004FD012240F225518A4800F0C5
:1008E00096FD0121884800F086FD06B010BD10B5C8
:1008F00040F22551844800F06FFE002847D082481E
:1009000000F0EAFDC4B28148008800F400400028ED
:100910003DD17F48007858B92B2C38D101207C4933
:1009200008707A480088C0F30D007A490C542EE014
:100930007648008800F4804078B10A2C03D000206B
:100940007249088023E00020714908706F480088D0
:1009500040F400406D49088019E00D2C06D16B4829
:10096000008840F480406949088010E067480088AA
:10097000C0F30D0067490C5464480088401C63496B
:10098000088008460088C72801DD0020088010BDC7
:10099000F0B503460D461646002729460A2E03D019
:1009A000002008702846F0BD33B9302001F8010B53
:1009B000002008702846F6E7002B03DA2D2001F806
:1009C000010B5B4242F210720DE093FBF2F404B9AA
:1009D00037B104F1300001F8010B04FB1233012799
:1009E0000A2092FBF0F2002AEFDC00200870284673
:1009F000D9E70FB470B586B006460CA8019073E035
:100A00000B9800785C281CD10B98401C0B90007848
:100A10006E2809D072280FD10D21304600F058FD04
:100A20000B98401C0B900BE00A21304600F050FD63
:100A30000B98401C0B9003E00B98401C0B9000BFE0
:100A40004BE00B980078252840D10B98401C0B9068
:100A50000078642818D0732833D1019810C8019009
:100A60000BE02178304600F033FD00BF40213046D6
:100A700000F09CFD0028F9D0641C20780028F0D1FB
:100A80000B98401C0B9020E0019820C801900A228E
:100A900002A92846FFF77CFF02AC0BE02178304624
:100AA00000F016FD00BF4021304600F07FFD002819
:100AB000F9D0641C20780028F0D10B98401C0B90D2
:100AC00003E00B98401C0B9000BF06E00B9810F859
:100AD000011B0B90304600F0FBFC00BF402130466C
:100AE00000F064FD0028F9D00B980078002887D129
:100AF00006B070BC5DF814FB0038014000080140EE
:100B00001C060020D4060020004400401E060020E1
:100B1000200600209C07002009488047094800471C
:100B2000FEE7FEE7FEE7FEE7FEE7FEE7FEE7FEE79D
:100B3000FEE7FEE704480549054A064B70470000FA
:100B40000F05000831010008788D002078930020FF
:100B5000788F0020788F002010B50446CC4884425E
:100B600008D10121042000F02DFB0021042000F019
:100B700029FB46E0C748844208D10121082000F043
:100B800021FB0021082000F01DFB3AE0C24884420E
:100B900008D10121102000F015FB0021102000F0E9
:100BA00011FB2EE0BD48844208D10121202000F035
:100BB00009FB0021202000F005FB22E0B848844218
:100BC00008D10121402000F0FDFA0021402000F072
:100BD000F9FA16E0B348844208D10121802000F0E0
:100BE000F1FA0021802000F0EDFA0AE0AE488442DC
:100BF00007D10121801500F0E5FA0021A01500F0D1
:100C0000E1FA10BD10B50121084600F0DBFA002121
:100C1000012000F0D7FA10BD2DE9F0410246002571
:100C20000026002000230024002791F803C00CF0C8
:100C30000F0591F803C00CF0100CBCF1000F03D0AD
:100C400091F802C04CEA050591F800C0BCF1000F14
:100C500031D0146800202BE04FF0010C0CFA00F3A7
:100C6000B1F800C00CEA03069E4220D183004FF089
:100C70000F0C0CFA03F7BC4305FA03FC4CEA04041E
:100C800091F803C0BCF1280F06D14FF0010C0CFA0B
:100C900000FCC2F814C00AE091F803C0BCF1480F90
:100CA00005D14FF0010C0CFA00FCC2F810C0401C3A
:100CB0000828D1D31460B1F800C0BCF1FF0F34DDB7
:100CC000546800202EE000F1080C4FF0010808FAEB
:100CD0000CF3B1F800C00CEA03069E4221D1830058
:100CE0004FF00F0C0CFA03F7BC4305FA03FC4CEA77
:100CF000040491F803C0BCF1280F05D100F1080CE1
:100D000008FA0CF8C2F8148091F803C0BCF1480F3F
:100D100007D100F1080C4FF0010808FA0CF8C2F8EE
:100D20001080401C0828CED35460BDE8F0814FF6F7
:100D3000FF710180022181700421C1707047024659
:100D4000002093680B400BB1012000E000207047A9
:100D50000146886880B2704702460020D3680B4085
:100D60000BB1012000E0002070470146C86880B246
:100D7000704701617047416170470AB1016100E04D
:100D800041617047C16070474FF480320A4382610D
:100D90008161826182698269704702460020434B0B
:100DA00018684FF68073184040EA021008433F4B22
:100DB000186070473E49C8617047F0B50A46002385
:100DC00000240021002500F00046B6F1004F02D1BA
:100DD000364EF16901E0354E7168C0F3034583B2C8
:100DE00000F44016B6F5401F08D121F070612F4E77
:100DF000766826F070662D4F7E6012E000F4801653
:100E0000B6F5801F06D1032606FA05F4A14341F08A
:100E1000706106E0460D360103FA06F6B14341F073
:100E2000706122B1460D360103FA06F6314300F037
:100E30000046B6F1004F02D11C4EF16101E01B4E9D
:100E40007160F0BD30B500228B071C0F0F2303FA31
:100E500004F2164B08338C1053F824309343134C90
:100E600008348D1044F8253023468C1053F8243074
:100E70008C07240F00FA04F423430C4C08348D1023
:100E800044F8253030BD0A49DC3108607047000065
:100E900000080140000C0140001001400014014016
:100EA00000180140001C01400020014000000140EA
:100EB00000002042DF48006840F00100DD49086082
:100EC00008464068DC490840DA494860084600683E
:100ED000DA490840D74908600846006820F48020B5
:100EE00008600846406820F4FE0048604FF41F0088
:100EF00088607047CF49096821F48031CD4A11607C
:100F00001146096821F480211160B0F5803F03D0BB
:100F1000B0F5802F0ED106E0C649096841F4803152
:100F2000C44A116007E0C349096841F4A021C14ADD
:100F3000116000E000BF00BF704710B501460022FD
:100F4000002300204A11012A02D1BA4C236806E08E
:100F5000022A02D1B74C236A01E0B64C636A01F061
:100F60001F02012494401C400CB1012000E000202D
:100F700010BD38B5002000900024002500BF3120AE
:100F8000FFF7DBFF05460098401C00900098B0F585
:100F9000A06F01D0002DF2D03120FFF7CEFF08B1B5
:100FA000012400E00024204638BD01460020A14A6B
:100FB000106820F0F80040EAC10010607047A049B6
:100FC00008607047024600209A4B586820F47C1055
:100FD00042EA01031843974B5860704798490866E6
:100FE000704701460020934A506820F003000843F0
:100FF000506070478F48406800F00C007047014611
:1010000000208C4A506820F0F00008435060704780
:1010100001460020874A506820F4E0600843506091
:10102000704701460020834A506820F4605040EA2F
:10103000C1005060704729B17E4A527A02437D4B0D
:101040005A7204E07B4A527A82437A4B5A72704752
:101050007B49D8310860704701460020754A5068C6
:1010600020F440400843506070470021714A20320C
:101070001170704A82F82010012802D004280AD189
:1010800004E001216B4A2032117005E00521694A14
:101090002032117000E000BF00BF7047694908604E
:1010A00070476449096A0143624A116270476549A1
:1010B00044390860704730B5002100220024002325
:1010C0005C4D6D6805F00C0121B1042905D008299B
:1010D00023D105E05C4D056022E05B4D05601FE01B
:1010E000544D6D6805F47012524D6D6805F48034EE
:1010F000022505EB92421CB9544D554305600BE0A7
:101100004C4D6D6805F400351DB1504D55430560DB
:1011100002E04D4D5543056002E04B4D056000BFB8
:1011200000BF444D6D6805F0F0010909484D6B5C46
:101130000568DD4045603F4D6D6805F4E061090AD2
:10114000434D6B5C4568DD4085603A4D6D6805F444
:101150006051C90A3E4D6B5C4568DD40C560354D48
:101160006D6805F44041890B3A4D6B5CC568B5FB71
:10117000F3F5056130BD29B12E4A526902432D4B6A
:101180005A6104E02B4A526982432A4B5A617047E4
:1011900029B1284A92690243264B9A6104E0254A04
:1011A00092698243234B9A61704729B1214AD269DF
:1011B0000243204BDA6104E01E4AD26982431D4B90
:1011C000DA61704729B11B4AD2680243194BDA60D1
:1011D00004E0184AD2688243164BDA60704729B19E
:1011E000144A12690243134B1A6104E0114A12694E
:1011F0008243104B1A6170471249403908607047AA
:101200000F49C86470470B49C87170470948406A64
:1012100040F0807007494862704701460020054A47
:1012200092680A400AB1012000E00020704701499D
:1012300088727047001002400000FFF8FFFFF6FEC2
:10124000000042428004424200127A0000093D0040
:10125000210600203106002010B50446FB488442D8
:1012600009D101218803FFF7ADFF00214FF4804031
:10127000FFF7A8FF32E0F648844209D10121480473
:10128000FFF7ADFF00214FF40030FFF7A8FF25E086
:10129000F048844209D101218804FFF7A0FF002112
:1012A0004FF48020FFF79BFF18E0EB48844209D100
:1012B0000121C804FFF793FF00214FF40020FFF73E
:1012C0008EFF0BE0E548844208D101210805FFF7B5
:1012D00086FF00214FF48010FFF781FF10BD2DE93C
:1012E000F04786B005460E460024A24600BFA14640
:1012F0000027B08900B100BF2F462C8A4CF6FF7042
:101300000440F08804432C82AC894EF6F31004406C
:10131000B08831890843718908430443AC81AC8AA1
:101320004FF6FF400440B0890443AC8201A8FFF7A8
:10133000C2FEC648874202D1DDF810A001E0DDF808
:101340000CA0A88900F4004040B10AEBCA0000EBF1
:101350000A1031684900B0FBF1F807E00AEBCA0057
:1013600000EB0A1031688900B0FBF1F86420B8FB8B
:10137000F0F004012009642101FB1089A88900F420
:10138000004040B1322000EBC900B0FBF1F000F0AA
:101390000700044308E0322000EB09106421B0FB91
:1013A000F1F000F00F0004432C8106B0BDE8F08797
:1013B0004FF41651016000218180C18001810C2110
:1013C000418100218181704710B502460020108ABA
:1013D0004FF2FF0318400B884C8823438C8823432B
:1013E000CC8823431843108210BD00210180418026
:1013F0008180C180704721B1828942F4005282818C
:1014000004E082894DF6FF731A4082817047F0B57F
:101410000346002400260025002040F66A17B94242
:1014200000D100BF1846C1F3421401F01F06012786
:1014300007FA06F5012C01D10C3004E0022C01D191
:10144000103000E014301AB107682F43076002E043
:101450000768AF430760F0BD1AB1838A0B438382EC
:1014600002E0838A8B4383827047028A4FF6F073CF
:101470001A400282028A0A430282704782894FF22E
:10148000FF731A40828182890A438281704721B1A9
:10149000828942F00202828104E082894FF6FD7364
:1014A0001A4082817047028A4FF6DF731A40028227
:1014B000028A0A430282704721B1028A42F48042C2
:1014C000028204E0028A4BF6FF731A4002827047E0
:1014D000C1F308028280704701468888C0F3080083
:1014E0007047818941F0010181817047028BD2B23E
:1014F0000283028B42EA012202837047028B02F4CC
:101500007F420283028B0A430283704721B1828AA1
:1015100042F02002828204E0828A4FF6DF731A4092
:101520008282704721B1828A42F01002828204E0F6
:10153000828A4FF6EF731A408282704721B1828A05
:1015400042F00802828204E0828A4FF6F7731A4062
:101550008282704721B1828942F40042828103E095
:101560008289C2F30E028281704721B1828A42F4DD
:101570000062828204E0828A4FF2FF731A40828204
:101580007047828A4FF6FB731A408282828A0A432E
:101590008282704721B1828A42F00202828204E094
:1015A000828A4FF6FD731A408282704702460020FD
:1015B000B1F5007F00D100BF13880B400BB10120B3
:1015C00000E00020704701F40072B2F5007F00D106
:1015D00000BFCA430280704770B502460024002352
:1015E0000025002040F66A16B14200D100BFC1F3C9
:1015F000421501F01F03012606FA03F3012D02D163
:101600009689334006E0022D02D1168A334001E06C
:10161000968A33400C12012606FA04F416883440E8
:1016200013B10CB1012000E0002070BD10B5002204
:10163000002340F66A14A14200D100BF0A1201241F
:101640009440A3B2DC43048010BD00000038014088
:101650000044004000480040004C00400050004062
:1016600031490143314A1160704770B500210023B0
:101670000F22C47804B32D4C246804F4E064C4F54C
:10168000E064210AC1F10403CA40447804FA03F17A
:101690008478144021430901254C0678A15504782B
:1016A00004F01F050124AC4005786D11AD0005F173
:1016B000E025C5F8004109E0047804F01F05012485
:1016C000AC401C4D0678761145F8264070BD1A4A8C
:1016D0000A400243154B1B1F1A60704739B1134A69
:1016E000121D12680243114B1B1D1A6006E00F4ABF
:1016F000121D126882430D4B1B1D1A60704704288F
:1017000008D14FF0E021096941F004014FF0E022D7
:10171000116107E04FF0E021096921F004014FF069
:10172000E0221161704700000000FA050CED00E0B6
:1017300000E400E080E100E080FFFF1F70B50024BE
:1017400000254FF4807529463848006802F0D5FA24
:10175000374908600846006800B970BD002004469B
:1017600008E03349096801EBC4004060006000BF35
:10177000601C0446202CF4D300BFEEE710B50A46E7
:101780002B49096801EBC20319684C684460016089
:101790004C682060486000BF00BF10BD00BFD0E9AA
:1017A00000121160D0E90021516000214160016008
:1017B00000BF704700210020014612E01C4A126859
:1017C00002EBC1004268824201D1012200E0002206
:1017D0002AB91748006800EBC10040687047481CF0
:1017E00001462029EAD30020F8E701460020002224
:1017F0000F4B1B6803EBC1035A6801E0401C5268A1
:101800000B4B1B6803EBC1039342F7D1704730B514
:101810000024002500BF04E02046FFF7E6FF054452
:10182000641C202CF8D3284630BD0000C4060020DC
:10183000380600200EB50020029000BF4FF0FF33A5
:10184000042202A9F748006801F039FC0446002C84
:10185000F4D102980028F1D0029800680090029814
:1018600040680190F048029902F036F8009800288C
:10187000E4D0DDE900108847E0E710B58AB0242104
:1018800001A802F0A5FFAFF2530001904FF43470AD
:101890000790E6A008900020ADF80800802009908D
:1018A00001A9E54800F02EFD044620460AB010BD0F
:1018B0002DE9F8430020E14908604FF400784146E3
:1018C000DF48006802F019FA044614B9DD48BDE8A3
:1018D000F8834146204602F07BFFDB480460DB488A
:1018E00004600020208125462034012705E027815F
:1018F0002C602546781C87B22034102FF7DB082295
:10190000D021C94801F08AFF064616B1CD48C01C57
:10191000DDE704200023C34A10210090184601F09F
:1019200092FB064616B1C748001DD0E7FFF7A5FF9A
:10193000064616B1C348401DC9E70020C7E710B5E9
:101940000022002183793BB9437913B14379022BFB
:1019500002D14369C36001E00369C360B74B1968F2
:101960000AE0CB68C468A34200D907E0C368CC682A
:101970001B1BC3600A4609680029F2D100BF016041
:1019800019B1CB68C4681B1BCB6012B9AB4B186094
:1019900000E010600223037110BD70B5A748046811
:1019A00036E0A649206808609F4801F077FF0546A9
:1019B0007DB1E0692860A06968600023042229469F
:1019C0009848006801F009FC18B12946964801F0D2
:1019D00083FF6079A0B9204600F084F920894FF692
:1019E000E071884203DA2089103020810EE02089DE
:1019F000C11700EB11710911A0EB0111218105E064
:101A0000A079401CA0712046FFF799FF8B4804681D
:101A100014B1E0680028C4D070BD10B587480068D4
:101A200048B186480068C068401E84490968C8609B
:101A300008B9FFF7B2FF002010BD8048006810B958
:101A40004FF0FF3070477D480068C068FAE710B576
:101A500004467A480068C068A04202D2774800680D
:101A6000C46876480068C068001B74490968C8608B
:101A700072480068C06808B9FFF78FFF10BD10B545
:101A80000246002100206D4B186801E00146006805
:101A90009042FBD103682BB10368DB68C468234420
:101AA0000468E36019B9654C0368236001E00368CA
:101AB0000B6000230360012303710023837110BDB9
:101AC0002DE9F04705460E4617469846DDF820906A
:101AD0001DB95C48801FBDE8F08726B1012E02D0F9
:101AE0005848401FF7E717B95648C01FF3E7B8F149
:101AF000000F02D15348001FEDE702F0D7FE8246E7
:101B00005248006828B9504602F0D8FE4D48C01E21
:101B1000E1E74E4804684D4920680860504602F0ED
:101B2000CDFEE76166710020A071256165612060CE
:101B3000E060C4F81890012020712089A8F8000006
:101B40000020C8E72DE9F041044600274FF6F07069
:101B5000844203DB3B48801EBDE8F08102F0A6FE14
:101B600080462046E11704EB11710911A4EB011125
:101B70008EB23548006800EB46152889A04205D092
:101B8000404602F09BFE2F48801EE5E7287920B1F1
:101B9000012809D002280BD102E02A4F7F1E0AE05B
:101BA0002846FFF76CFF00BF2846FFF7C8FE02E09B
:101BB000244FFF1D00BF00BF404602F07FFE3846A5
:101BC000CAE72DE9F041044600274FF6F070844241
:101BD00003DB1C48801EBDE8F08102F067FE8046F2
:101BE0002046E11704EB11710911A4EB01118EB22B
:101BF0001548006800EB46152889A04205D04046EC
:101C000002F05CFE0F48801EE5E7287920B101282C
:101C100005D0022820D11BE00A4F7F1E1EE0094F8D
:101C2000BF1D1BE03C060020640800205377745F52
:101C30005461736B00000000640600204806002019
:101C4000C4060020070300024006002044060020CE
:101C50002846FFF714FF01E0264F00BF00BF4046B3
:101C600002F02CFE3846B6E72DE9F0410446002785
:101C70004FF6F070844203DB1E480938BDE8F0815E
:101C800002F014FE80462046E11704EB11710911A1
:101C9000A4EB01118EB21848006800EB46152889A4
:101CA000A04205D0404602F009FE12480938E5E797
:101CB000287920B1012809D002280BD102E00D4F6C
:101CC000083F09E02846FFF7DAFE00BF284600F08B
:101CD00009F801E0074F00BF00BF404602F0EEFDEB
:101CE0003846CBE7054909680160044908600021CE
:101CF000017170470E0300024006002044060020D8
:101D000002F0D4FD00BFFEE7464903C970474648CC
:101D1000704770B50446B4F1FF3F02D14FF0FF3079
:101D200070BD4FF47A70A4FB005001464FF47A72F4
:101D30000023284602F06EFCF2E770B504464FF42B
:101D40007A70A4FB005001464FF47A7200232846B3
:101D500002F060FC70BD2DE9FC47044689469246BE
:101D60002CB1B9F1000F02D0BAF1000F02D12F4807
:101D7000BDE8FC870021D4E9000241EA020740EAFD
:101D800001083846414602F029FF0022284BCDE9E0
:101D9000000102F0CBFD05460E462846314602F012
:101DA000B7FF07468846CAF80070C9F800800020CF
:101DB000DEE72DE9FC470446894692462CB1B9F18D
:101DC000000F02D0BAF1000F02D11848BDE8FC871D
:101DD0000021D4E9000241EA020740EA010838463E
:101DE000414602F0FBFE0022124BCDE9000102F059
:101DF0009DFD05460E462846314602F089FF0746FE
:101E00008846CAF80070C9F800800020DEE700B5F7
:101E1000FFF77AFF00BD10B504462046FFF78DFF9F
:101E200010BD0000900600204019010010000002C3
:101E30000094F1400000524042684A6008604268E5
:101E4000116041607047D0E900121160D0E90021B3
:101E50005160002141600160704700BFFEE770B52E
:101E600004460D46207900F0040090B104F13C00D6
:101E7000FFF794FCA08820F00400A080E580A088F3
:101E800040F00400A080E18804F13C00FFF776FCFC
:101E900000E0E58070BD2DE9F0470446884608F073
:101EA0001F074FEA581907B101E0A9F10109E06CD9
:101EB00000F0784040EA0900E064FC48808807446C
:101EC00007F01F07E06C67F3DF60E064F748006825
:101ED00000EBC7067068B04205D104F144013046FA
:101EE00000F0C4FD33E07068A0F1440500BFE86C69
:101EF00020F07840E16C21F0784188420CD8E06C09
:101F000020F07840E96C21F07841401AE16C01F052
:101F100078410843E0640CE0E86C20F07840E16C24
:101F200021F07841401AE96C01F078410843E864F7
:101F300006E0A86CA0F1440505F14400B042D6D1FA
:101F400000BF04F1440105F1440000F08FFDBDE83D
:101F5000F0872DE9F0410446E06CC70ED3480068D5
:101F600000EBC706A06CB0420ED0A06CA0F14405F7
:101F7000E86C20F07840E16C21F078410844E96C8D
:101F800001F078410843E86404F14400FFF75BFF87
:101F9000BDE8F0812DE9F0410027C4498988481C3B
:101FA000C11700EBD1614911A0EB4111BF4A9180EB
:101FB000104600681146898800EBC1056868A84290
:101FC00001D1BDE8F0816868A0F1440443E0A6882F
:101FD000E06C20F0784018B1E06C401EE0643EE018
:101FE00004F14400FFF72FFF06F0080058B1A08865
:101FF00020F00800A08004F13C00FFF724FF00203F
:10200000A061606217E006F4806020B1A08820F42F
:102010008060A0800FE006F4005040B104F13C0065
:10202000FFF711FFA08820F40050A08003E0A088F3
:1020300020F02000A08006F0020048B9A08840F0FF
:102040000400A080E18804F13C00FFF797FB012722
:102050006868A0F1440404F14400A842B7D100BF6D
:102060000FB102F05FF900BFABE770B590480068B0
:10207000401C682100FB01F631468E48006801F0E3
:102080003CFE8D4908600846006808B98B4870BD61
:1020900031468948006802F09BFB894800F0E3FC68
:1020A000884800F0E0FC884800F0DDFC002420E0D7
:1020B000012004EB840101EBC4017F4A126802EBAA
:1020C000C101888004EB840000EBC4007A490968F0
:1020D00001EBC000046104EB840000EBC400764A0D
:1020E000126802EBC00000F13C01764800F0BEFC33
:1020F000641C0F2CDCD975480021016041606C48DC
:10210000006800EB800101EBC0006B49096801EB3E
:10211000C0006E4908600846006804611120096823
:102120008880202069490968C880FFF707FB4FF4C1
:10213000807631465F48006801F0DFFD05460DB945
:102140005E48A4E73146284602F042FB5748056046
:10215000002056498880002404E0284600F083FCD3
:10216000641C0835202CF8D3002090E72DE9F05F9F
:1021700007460D464FF000094FF0FF3A17B9544893
:10218000BDE8F09F15B95248801FF9E7E86910B91A
:102190004F48801EF4E7286810B94D48C01EEFE78D
:1021A000A8881F2802DD4A48001FE9E7A869B0F5A2
:1021B000004F02D946481930E2E7A86910B94FF438
:1021C0003470A8610821A86901F0F2FFA86110210C
:1021D0004FF4987001F0ECFFA969884202D93C489D
:1021E000401ECDE702F062FB834611E036484068AE
:1021F000A0F13C0434494868FFF725FE04F13C0196
:102200003048FFF719FE2B48E168006801F0CEFD69
:102210002D4800F033FC0028E8D02A4800F02EFCBE
:1022200028B1DFF8ACA00AF10A0A00BF65E0254832
:102230004068A0F13C0423494868FFF704FE584673
:1022400002F03CFBD4F8109008221A48A9690068F3
:1022500001F070FD06465EB902F028FB834604F1EA
:102260003C011848FFF7E8FDDFF850A000BF44E04C
:1022700032464846A96902F074F88046C4F80080E6
:10228000A868A062E968E1622969216369696163FC
:10229000E660A869A0600020A061E06160620220A1
:1022A000A080A088296AA9B1802114E080060020BE
:1022B0005C060020C40600204C060020000200033B
:1022C00068060020700600207806002050060020D6
:1022D0000702000200210843A080A888E080286847
:1022E00060614FF0FF3020650020E065E869A06381
:1022F00000206066C7F8009042E7584602F0DEFA18
:1023000050463DE72DE9F04105460F460026394687
:102310002846FFF72BFF064616B13046BDE8F08190
:10232000286800EB800101EBC000F749096801EB68
:10233000C00402F0BBFA8046A08820F00200A08012
:10234000A08840F00400A080E18804F13C00FFF781
:1023500015FAFFF72FFA3C38EC494860EC48006862
:1023600088B1EC48008870B908460068496888421E
:1023700009D0E848008830B9404602F09FFA01F0E1
:10238000CDFF0020CAE7404602F098FA0020C5E7DA
:1023900010B58AB0242101A802F01AFAAFF2455014
:1023A00001904FF4A0600790DBA008901F20ADF8CB
:1023B000080001A9DB48FFF7A5FF044614B1204639
:1023C0000AB010BD0020FBE7D048006808B9D64825
:1023D0007047CE4800680069FAE72DE9F0410546EC
:1023E0000F4605EB850000EBC500C749096801EB06
:1023F000C004A68806F0040040B104F13C00FFF7D9
:10240000CDF9A08820F00400A0800DE042F2080081
:10241000304048B104F13C00FFF715FD06F06000C4
:1024200010B12046FFF795FDA08820F00200A080A3
:10243000A08840F00100A0804FF0FF302065002010
:10244000E065FFF7B7F93C38B0494860207900F003
:10245000100040B304F13C01B44800F007FBB4485D
:10246000006800EB800101EBC000A749096801EB9F
:10247000C000A6490860084600680561A088096890
:102480008880A249E0680968C860A049A06B096813
:1024900088630120A080384602F010FA01F03EFF68
:1024A0000020BDE8F081207900F0010030B138460D
:1024B00002F004FA01F032FF0020F2E7384602F0A1
:1024C000FDF90020EDE710B502F0F0F9044691485F
:1024D000008800280DDD8F480088401E8D49088047
:1024E0000846008828B9204602F0E8F901F01AFFF2
:1024F00010BD204602F0E2F900BFF9E710B502F086
:10250000D5F9044683480088401C8249088020464B
:1025100002F0D4F910BD2DE9F041054605EB850028
:1025200000EBC5007849096801EBC004E06930B1EF
:10253000666904F128000FC8B047206204E06669AC
:1025400004F128000FC8B047207900F0800050B196
:1025500002F0ACF9074600206E4908803946206930
:10256000FFF73BFF22E002F0A1F90746002069498E
:102570000880384602F0A2F9FFF7C0FFE06928B1F1
:10258000E169486801F0CFF80020E061207900F0AF
:10259000040038B104F13C00FFF700F9A08820F0F6
:1025A0000400A080FFF78FFF01F0BCFEBDE8F081C2
:1025B0002DE9F04105464FF0FF370F2D02D95A485B
:1025C000BDE8F08105EB850000EBC5004E490968C8
:1025D00001EBC00402F06AF98046A68806F001000B
:1025E00018B1514FFF1C00BF2CE006F0020018B9D3
:1025F0004D4FBF1C00BF25E0A08820F00200A08046
:10260000A08842F22A410840B8B9A08840F00400EE
:10261000A080E18804F13C00FFF7B0F83C48006876
:1026200030B1404602F04AF901F07CFE0020C7E7D5
:10263000FFF7C0F83C3835494860404602F03EF9A3
:102640000020BDE7404602F039F93846B8E72DE9E9
:10265000F04105464FF0FF3732480068854203D10C
:1026600031480D30BDE8F08132480068854202D122
:102670002D481A30F6E72E480068854201D32A48D3
:10268000F0E705EB850000EBC5001F49096801EB89
:10269000C00402F00BF98046A68806F0010018B1CC
:1026A000214FFF1C00BF49E006F0020018B11E4F89
:1026B0007F1C00BF42E006F0100028B115480088DA
:1026C00010B11D4F00BF39E006F0040038B104F12D
:1026D0003C00FFF763F8A08820F00400A080A088E9
:1026E00040F00200A080094800680069A84206D1B5
:1026F000404602F0E3F801F015FE0020B2E7404644
:1027000002F0DCF80020ADE74C0600205006002067
:10271000880600205806002049646C65436F726586
:1027200030303000600600200702000278060020EA
:102730005C0600206406002015020003404602F0FB
:10274000BDF838468EE72DE9F04106464FF0FF37D9
:10275000CE480068864202D1CD48BDE8F081CD4820
:102760000068864202D3CA480D38F6E702F09EF8A8
:10277000804606EB860000EBC600C749096801EBFE
:10278000C004A588207900F0010018B1C04F0A3FAD
:1027900000BF73E005F0100028B1C048008810B1F8
:1027A000BF4F00BF6AE005F0040040B104F13C00F7
:1027B000FEF7F4FFA08820F00400A08009E005F0F7
:1027C000080010B905F4005018B104F13C00FFF7FF
:1027D0003AFB05F0600010B12046FFF7BAFBA08875
:1027E00020F00200A080A08840F00100A0804FF0FF
:1027F000FF3020650020E065FEF7DCFF3C38A9498A
:102800004860207900F0100038B304F13C01A6487C
:1028100000F02CF99F48006800EB800101EBC0003C
:102820009D49096801EBC0009E49086008460068A0
:102830000661A088096888809A49E0680968C860CC
:102840009849A06B096888630120A080404602F087
:1028500035F801F063FD00207FE70120A08004F13E
:102860003C019248FFF7E8FA9148E168006801F0FE
:102870009DFA404602F022F800206EE7404602F042
:102880001DF8384669E770B500248648006800697D
:1028900080490968884202D37D480D3870BD02F036
:1028A00005F805467F490968C888FEF79EFF04467B
:1028B000012C17D97B49096801F13C00FFF7C3FAE5
:1028C00078480068808840F004007649096888806C
:1028D000744A1268D188734A126802F13C00FEF70C
:1028E0004DFF05E0284601F0E9FF6948001FD5E7E4
:1028F000284601F0E3FF01F015FD0020CEE770B59A
:1029000004466C48006810B16548801C70BD63487F
:10291000008810B15E48801FF8E714B9FFF7B3FFD5
:10292000F4E701F0C3FF05465E49096801F13C0088
:10293000FEF734FF5B480068808820F004005949A6
:1029400009688880574908682146FFF7A4FA554866
:102950000068808840F02000524909688880284635
:1029600001F0ACFF01F0DEFC0020CFE72DE9F041E3
:10297000044648480068844203D34FF6FF70BDE820
:10298000F08104EB840000EBC4004349096801EBCB
:10299000C00501F08BFF0746287900F0010028B13F
:1029A000384601F08BFF4FF6FF70E8E7EE883846B7
:1029B00001F084FF3046E2E72DE9F04705460E4678
:1029C0001F2E03DD32481138BDE8F0872F4800681C
:1029D000854201D12E48F7E72E480068854202D390
:1029E0002B480D38F0E705EB850000EBC5002A49C0
:1029F000096801EBC00401F059FF8146B4F8048076
:102A000008F0010028B1484601F058FF20480A3874
:102A1000DAE708F0040797B104F13C00FEF7BEFEC8
:102A2000A08820F00400A080E680A08840F0040088
:102A3000A080E18804F13C00FEF7A0FE00E0E68003
:102A4000484601F03BFF0FB101F06CFC0020BBE7F2
:102A500070B504461349096808692146FFF7ACFFC1
:102A60000546284670BD40600060704770B504465A
:102A70000D4629462068FFF7DFF970BD014648681A
:102A8000884201D1012070470020FCE76006002049
:102A9000140200025C0600204C06002058060020AC
:102AA0000B0200035006002078060020700600206C
:102AB000C4060020D006002010B50848D0E9003038
:102AC0005A1C40F100000549C1E9002000F00EF851
:102AD000FFF760FAFEF7A1FF10BD0000900600208E
:102AE0000020124908600A20C880704710B50F48BE
:102AF00000680F49096888420BD00D4800680B49EF
:102B000008600846C1880B4800880844401E0749F1
:102B10008880064881880748008880B2814204D1B5
:102B2000002002490860FFF7AEFE10BDA00600209D
:102B3000500600209006002042684A600860426803
:102B4000116041607047D0E900121160D0E90021A6
:102B50005160002141600160704770B5D34800F0BA
:102B600092F9F021D248006801F0C7F8D149086015
:102B70000846006808B9D04870BD00240EE004EB98
:102B80004400CC49096801EBC0056C600020287046
:102B900005F10801C54800F079F9641C0A2CEED350
:102BA0000020E9E72DE9F04105461DB9C248801C27
:102BB000BDE8F08101F07AFE0746BC4800F06EF9EE
:102BC00028B1384601F07AFEBB48C01CF0E7B74890
:102BD00046683046FFF7B7FFA6F108040020608082
:102BE000012020700020A082206104F1080000F084
:102BF0004AF960682860384601F060FE0020D7E797
:102C000070B5054605EB4500AA49096801EBC0040B
:102C100001F04CFE06460A2D01D2207828B9304634
:102C200001F04CFEA448401C70BD04F1080000F007
:102C300035F908B1608828B1304601F03FFE9E4862
:102C40000930F1E704F108019848FFF775FF00200B
:102C50002070304601F032FE0020E5E72DE9F04714
:102C600006460F4606EB46009249096801EBC0058F
:102C700001F01CFE82460A2E01D2287830B9504657
:102C800001F01CFE8C48401CBDE8F0878B480068B2
:102C900028B1504601F012FE8748401DF4E78848ED
:102CA0000468688850B96888401C68802C61E08896
:102CB000A882504601F002FE0020E5E72869A04204
:102CC00007D16888401C6880504601F0F7FD00205D
:102CD000DAE72FB9504601F0F1FD7748001DD3E740
:102CE0007848008820B1DFF8D08108F106084AE072
:102CF00004F13C00FEF752FDA08820F00400A08003
:102D0000656204F13C09A08840F00800A0802869B1
:102D1000C088E188884203DDE1882869FFF79FF8D1
:102D2000494605F1080000F0B1F8781C68B1A088A8
:102D300040F04000A08039462046FFF7ACF85046EE
:102D400001F0BCFD01F0EEFA08E0A08820F04000A0
:102D5000A080504601F0B2FD01F0E4FA207900F0C5
:102D6000400070B101F0A2FD8246A08820F0400032
:102D7000A080504601F0A2FDDFF83C8108F1070871
:102D800005E0002080E7504601F098FD00BF404676
:102D90007AE72DE9F041064606EB46004549096809
:102DA00001EBC00401F082FD80460A2E01D220789A
:102DB00030B9404601F082FD3F48401CBDE8F0813B
:102DC0003E48006828B1404601F078FD3A48401D71
:102DD000F4E73B480768608810B12069B84205D025
:102DE000404601F06BFD3448401CE7E76088401E18
:102DF00080B2608020B1404601F060FD0020DDE738
:102E00002069C088A18A884203D0A18A2069FFF77F
:102E100026F804F1080000F041F870BBE068A0F16A
:102E20003C05E068FFF78FFEA88820F00800A88026
:102E3000287900F0400030B12846FFF78AF8A888CA
:102E400020F04000A880012060802561E888A082F1
:102E500000206862287900F0020040B9A88840F09C
:102E60000400A880E98805F13C00FEF787FC404695
:102E700001F024FD01F056FA03E0FFE7404601F0BF
:102E80001DFD00209AE740600060704770B5044661
:102E90000D4629462068FFF74FFE70BD0146486881
:102EA000884201D1012070470020FCE7AC060020D9
:102EB000C4060020A8060020001D0002D006002045
:102EC000500600205806002042684A6008604268A8
:102ED00011604160704710B54FF4DC71FE48006826
:102EE00000F00BFFFD4908600846006808B9FC487F
:102EF00010BD4FF4DC71F948006801F069FC002056
:102F0000F6E72DE9F0470646884617469946F34806
:102F10000468002507E0A08818B9681CC8F80000FC
:102F200003E06D1C2C340A2DF5D300BF0A2D03D10C
:102F3000EB48C01CBDE8F0872C21204601F048FC7E
:102F400006FB07F1E448006800F0D7FE2060206827
:102F500010B9E348401CEDE7E68027810120A080FE
:102F6000C9F800400020E5E72DE9F04104460D4690
:102F700017464FF00008002604F13C00FEF70EFC57
:102F8000A08820F00400A08004F13C08A08840F450
:102F90000050A080284600F0ACFA30B100BF414696
:102FA0002868FFF791FF00BF14E06868A0F13C06B5
:102FB00007E0E088F188884200DA06E0306CA0F192
:102FC0003C0606F13C00A842F3D100BF4146F06B3D
:102FD000FFF77AFF781C38B1A08840F04000A0804D
:102FE00039462046FEF757FFBDE8F08170B505462B
:102FF0006868A0F13C046868D0E900121160D0E96B
:103000000021516000214160016000BFA08820F4D0
:103010000050A080207900F0400030B12046FEF73B
:1030200098FFA08820F04000A080207900F00200E6
:1030300040B9A08840F00400A080E18804F13C0081
:10304000FEF79CFB70BD2DE9F84F81460C461546F6
:103050009A460A9E1DB9A2480B30BDE8F88F4FF67C
:10306000FB70864202DD9E48801CF6E704B116B96B
:103070009B480C30F1E701F019FC8046301D82B20C
:103080006B4629462046FFF73CFF074627B14046DE
:1030900001F014FC3846E0E70098143000F026FAFE
:1030A00000981C3000F022FA0098243000F01EFA3C
:1030B0000098C481404601F001FC0020CDE72DE9D5
:1030C000FC5F80460F4691461E4600200090A8F106
:1030D000010BBBF10A0F03D381480D30BDE8FC9F03
:1030E00017B97F480E30F9E7B9F1000F02D17C48DB
:1030F0000F30F3E72EB17B48006810B178481730E5
:10310000ECE701F0D3FB01900BEB4B0000EBCB00A5
:103110007249096801EB8004A08820B900BF70489B
:103120001B30009054E0208A50BB26B900BF6C4889
:103130001C3000904CE06C48008820B100BF68480B
:10314000401D009044E069480568324604F11C01C6
:103150002846FFF709FF019801F0B0FB01F0E2F803
:1031600001F0A4FB0190287900F0400058B1A88834
:1031700020F04000A88000BF5948801D009027E043
:10318000208A401E208261892289206801FB020A70
:10319000DAF8000038606089401C80B26081E18804
:1031A000884201D10020608104F1140000F0A1F9EF
:1031B00050B904F11400FFF719FF019801F07EFBEC
:1031C00001F0B0F8002089E7E089401CE08100BFF1
:1031D000019801F073FB009880E72DE9FC5F8146C0
:1031E0000F4690461E4600200090A9F1010BBBF14E
:1031F0000A0F03D33A481030BDE8FC9F17B938488E
:103200001130F9E7B8F1000F02D135481230F3E779
:103210002EB13448006810B131480830ECE701F0B5
:1032200045FB01900BEB4B0000EBCB002B490968F1
:1032300001EB8004A08820B900BF2948133000901A
:1032400068E02089404504D200BF25481430009032
:1032500060E0E08950BB26B900BF214815300090DE
:1032600058E02148008820B100BF1D48401D009053
:1032700050E01E480568324604F114012846FFF765
:1032800073FE019801F01AFB01F04CF801F00EFBFF
:103290000190287900F0400058B1A88820F0400043
:1032A000A88000BF0E48801D009033E0E089401EDA
:1032B000E081A1892289206801FB020ACAF8007016
:1032C000A089401C80B2A081E188884201D1002001
:1032D000A08104F11C000BE0C4060020B40600200D
:1032E00001060002D00600205806002050060020EB
:1032F00000F0FFF850B904F11C00FFF777FE0198C9
:1033000001F0DCFA01F00EF8002075E7208A401C7D
:10331000208200BF019801F0D1FA00986CE72DE9F6
:10332000F05F80460D4616460027B9460024A8F1F6
:10333000010ABAF10A0F02D30020BDE8F09F0DB9CF
:103340000020FAE726B16F48006808B10020F4E7D2
:1033500001F0ACFA83460AEB4A0000EBCA006A4966
:10336000096801EB8009284600F098FA0746EFB992
:1033700006B91CE065480468324609F1240120467C
:10338000FFF7F2FD584601F099FA00F0CBFF01F08B
:103390008DFA8346207900F0400020B1A08820F00B
:1033A0004000A08003E0676E0020606600BF5846C2
:1033B00001F084FA3846C0E72DE9F05F06460D4675
:1033C00017464FF000090024A246A6F10108B8F103
:1033D0000A0F02D34E48BDE8F09F15B94C48401C77
:1033E000F9E701F063FA83463946284600F074FA9B
:1033F00028B1584601F062FA4548801CEBE708EB1B
:10340000480000EBC8004049096801EB800404F162
:10341000240000F06EF890B9A06AA0F13C0A04F113
:103420002400FFF7E3FD284600F038FA8146CAF889
:103430006490584601F042FA00F074FF02E05846EA
:1034400001F03CFA0020C6E72DE9F0410646771E60
:103450000A2F03D32E481438BDE8F08101F026FA74
:10346000804607EB470000EBC7002749096801EBDE
:103470008004A08818B900BF254D0F3D31E004F14C
:103480001C0000F036F818B900BF214D113D28E0AE
:1034900004F1140000F02DF818B900BF1C4D113DC7
:1034A0001FE004F1240000F024F818B900BF184D03
:1034B000113D16E0E089218A0844E188884203D062
:1034C00000BF134D0E3D0CE012482168006800F06B
:1034D0006DFC054615B100BF00BF02E00020A080D2
:1034E00000BF404601F0EAF92846B5E740600060B9
:1034F000704701464868884201D10120704700208A
:10350000FCE70000D0060020B40600205006002092
:1035100019060002C406002042684A60086042683A
:10352000116041607047D0E900121160D0E90021BC
:103530005160002141600160704770B5B04800F0F3
:103540004CF9A021AF48006800F0D7FBAE490860F5
:103550000846006808B9AD4870BD00240CE0AA48D0
:10356000006800EB04156C600020287005F108016C
:10357000A34800F035F9641C0A2CF0D30020EBE7D7
:103580002DE9F04105460E461EB9A048801CBDE855
:10359000F0814FF6FE70854202DD9C480830F6E768
:1035A00001F084F98046964800F022F928B140469F
:1035B00001F084F99548C01CE9E79148476838460E
:1035C000FFF7B1FFA7F1080465800120207004F126
:1035D000080000F002F960683060404601F06EF9C2
:1035E0000020D4E770B505468748006800EB051455
:1035F00001F05CF906460A2D01D2207828B9304640
:1036000001F05CF98148401C70BD04F1080000F035
:10361000EFF828B9304601F051F97C480930F3E75A
:1036200004F108017648FFF777FF0020207030464C
:1036300001F044F90020E7E72DE9F0470746884606
:103640007148006800EB071501F030F982460A2F37
:1036500001D2287830B9504601F030F96B48401C4F
:10366000BDE8F0876888002807DD6888401E68800C
:10367000504601F023F90020F2E7B8F1000F02D123
:10368000624E361D49E06248006810B15F4E761DFB
:1036900043E06048008810B15C4EB61D3DE05E48D6
:1036A000046804F13C00FEF779F8A08820F00400DB
:1036B000A080A56104F13C09A08840F00800A0802A
:1036C000494605F1080000F08BF808F1010040B10F
:1036D000A08840F04000A08041462046FEF7DBFB7A
:1036E00003E0A08820F04000A080504601F0E6F8FA
:1036F00000F018FE207900F0400060B101F0D6F82B
:103700008246A08820F04000A080504601F0D6F804
:103710003E4EF61D05E00020A2E7504601F0CEF82F
:1037200000BF30469CE72DE9F04106463648006868
:1037300000EB06150A2E03D33448401CBDE8F08187
:1037400001F0B4F80746287828B9384601F0B6F8F1
:103750002E48401CF2E768884FF6FE71884205D17A
:10376000384601F0ABF829480830E7E705F10800D2
:1037700000F03EF848BBE868A0F13C04E868FFF7B9
:10378000D2FEA08820F00800A080207900F0400040
:1037900030B12046FEF7DDFBA08820F04000A0807D
:1037A0000020A061207900F0020040B9A08840F01C
:1037B0000400A080E18804F13C00FDF7DFFF3846FB
:1037C00001F07CF800F0AEFD05E06888401C6880E0
:1037D000384601F073F80020B0E7406000607047A1
:1037E00070B504460D4629462068FFF795FE70BD6A
:1037F00001464868884201D1012070470020FCE75B
:10380000B8060020C4060020C00600200007000201
:10381000D006002058060020500600202DE9F04771
:1038200006460F4690463446002516B90120BDE8ED
:10383000F087B8F1000F01D10120F8E70C2F01D279
:103840000120F4E701F032F8824608F1070020F089
:1038500003002060A7F10C002168B0FBF1F060606C
:10386000606820B9504601F029F80120DFE704F133
:103870000C05A5604FF0000905E020682844286089
:103880002D6809F101096068401E4845F5D80020FF
:103890002860504601F012F80020C8E72DE9F041F9
:1038A00005462F460026002415B90020BDE8F0810A
:1038B00000F0FCFF804607F10806306820B134684C
:1038C0002068306033482060404600F0F7FF0CB9B4
:1038D0000020EBE7201DE9E72DE9F04705460E46FD
:1038E0002C46012705B116B90120BDE8F08700F08C
:1038F000DDFF804600BF311F20460A46D0F800C0D9
:10390000BCF1000F02D14FF0010C25E000F10C0CCE
:10391000A2EB0C03D0F800C0B3FBFCF90CFB193C84
:10392000BCF1000F02D04FF0010C15E0D0F800C040
:10393000B3FBFCFCD0F80490CC4502D34FF0010C53
:103940000AE0DFF85090D2F800C0CC4502D04FF02A
:10395000010C01E04FF0000CBCF1000F00D004E0BE
:10396000A0680860A160002700BF00BF404600F0CB
:10397000A5FF3846B9E770B504460D46264604B1A2
:1039800005B970BD3068011F284600F0FFFE00BF7A
:10399000F7E70000A55A5AA542684A6008604268E5
:1039A000116041607047D0E900121160D0E9002138
:1039B00051600021416001607047C1430160F849D6
:1039C000096821B1F64909680969416002E04FF0D0
:1039D000FF31416070472DE9F047044688460025D5
:1039E00000270026A94614B1B8F1FF0F03D84FF005
:1039F000FF30BDE8F08700F059FF82462646344686
:103A00003660C6F8048004F1080000F0ABFB04F156
:103A1000E005281BA8EB00001038E8600020A86033
:103A200004F10800E96800F0ACFB8146B9F1000F31
:103A300005D1504600F042FF4FF0FF30D9E700BFFC
:103A40002946D9F80000FFF7A7FF00BF04EB0800E4
:103A5000A0F11007002038607860B860F860BD60A1
:103A60001020F860F86840F00040F8603846FFF732
:103A7000A4FF504600F022FF0020BAE710B5C94865
:103A8000C94908604FF40041C7480068FFF7A3FF29
:103A90000446204610BD00218268D268C3681A44DB
:103AA0008368DA60C268111882688A6000BF0022E9
:103AB00002604260826000BF70472DE9F047804697
:103AC0000D46164600240027A146AC19A560E868FB
:103AD000801BE060EE60E06820F000400719BC60E9
:103AE000F86800F0004028B93846FFF75CFF384618
:103AF000FFF7D1FF08F10800E16800F042FB8146C2
:103B0000B9F1000F01D1BDE8F08721464846FFF723
:103B100043FF00BFF7E72DE9F04104460E460027BA
:103B2000B846E16821F0004000F058FAE06820F063
:103B30000040E060A06848B3A068C06800F00040A2
:103B400020BBA5682046FFF7A6FFE86820F00040EC
:103B50004719F86800F0004028B93846FFF723FFFE
:103B60003846FFF798FF2846FFF71DFF06F10800CB
:103B7000E96800F006FB8046B8F1000F01D1BDE80E
:103B8000F08129464046FFF707FF1BE0E06820F080
:103B900000400719F86800F0004028B93846FFF7E0
:103BA00002FF3846FFF777FF06F10800E16800F0F2
:103BB000E8FA8046B8F1000F00D1E0E72146404620
:103BC000FFF7EAFE00BFDAE730B50446039DA142E5
:103BD00001D8944201D9002030BDE06800F00040D7
:103BE00038B120686040401C08B10020F4E7012093
:103BF000F2E72068984202D32068A84201D300204F
:103C0000EAE70120E8E72DE9F84F05460C462E4685
:103C100005F1E00870682844A0F1100A706847199F
:103C20004FF000092B465246414620460097FFF7C9
:103C3000CBFF10B90120BDE8F88FE06800F000402C
:103C400008B90120F7E7E06820F0004000EB040924
:103C50002B465246414648460097FFF7B5FF08B944
:103C60000120E8E7D9F80800A04201D00120E2E7EE
:103C7000444512D000972B4652464146A068FFF7B4
:103C8000A3FF08B90120D6E7A068C16821F0004170
:103C90000844A04201D00120CDE70020CBE72DE968
:103CA000F04107460E46002406F1130020F00305FC
:103CB0002946384600F051F9044614B90020BDE801
:103CC000F08105F11400E168814204D32A462146BF
:103CD0003846FFF7F2FE2046FFF765FE2046FFF765
:103CE0006CFEE06840F00040E060E16821F00040D8
:103CF00000F05CF904F11000E1E72DE9F041054620
:103D00000C46002600F0D2FD074600BF05B104B9FD
:103D100009E004F0004000B105E021462846FFF725
:103D2000BEFF064600BF00BF384600F0C7FD304664
:103D3000BDE8F0812DE9F05F80460F4614464FF054
:103D40000009CA460025002600F0B0FD834600BFEA
:103D5000B8F1000F00D007B91BE0381900F10409D1
:103D600009F0004000B114E049464046FFF797FFD4
:103D700005462819401E611E20EA0106B54200D101
:103D800007E0A6EB050A4AF0804A46F804AC35463F
:103D900000BF00BF584600F091FD2846BDE8F09FE7
:103DA0005006002034090020C40600202DE9F04709
:103DB00005460C460127002600F078FD814600BF2D
:103DC000B04605B104B914E054F8046C06F0804024
:103DD00010B126F08046A41BA4F1100841462846E5
:103DE000FFF711FF07461FB929464046FFF793FE2C
:103DF00000BF00BF484600F061FD3846BDE8F087CF
:103E00002DE9F74F88B081460F46002006900590B7
:103E100000F04CFD079000BF0024002003902FB954
:103E200048460A99FFF769FF05908EE00A9820B985
:103E300039464846FFF7BAFF87E057F8040C06906A
:103E4000069800F0804028B1069820F08040069047
:103E500006983F1AA7F1100421464846FFF7D3FE03
:103E60000490049800B170E00A98133020F0030821
:103E7000E06820F0004545451AD3C2462646AB46C9
:103E8000CDF808900AF1140058450ED8C6F80CB0C9
:103E9000524631460298FFF710FEF06840F00040AD
:103EA000F060ABEB0A0000F099F800BF05974CE01A
:103EB000E06820F00040204403900398C06800F0C0
:103EC000004078BB0398C068284440452BD3C246C5
:103ED0002646AB46CDF80490039802905D463446E2
:103EE000C6F80CB00298FFF75EFD0298FFF7D3FD0D
:103EF000F168481B00F05AF80AF11400F168814299
:103F000009D3F168A1EB0A0000F068F85246314687
:103F10000198FFF7D2FDF06840F00040F06000BF6C
:103F2000059712E0FFE748460A99FFF7B8FE0590AB
:103F3000059848B1A5F110023946059800F0E1FB5B
:103F400049462046FFF7E7FD00BF00BF079800F095
:103F5000B5FC05980BB0BDE8F08F70B505460E4670
:103F60000024314605F1080000F00BF9044618E082
:103F700000206168084605E0C168B14200D370BD09
:103F800041680846A042F7D105F1080021460246E3
:103F900002F1D0038B4201D1002301E001F10803BB
:103FA0001C46002CE4D10020E9E7000001461A4A33
:103FB000126802B97047194A126802B1FAE7164A44
:103FC000126810690F2800D9F4E7154A52F820202A
:103FD0000A44134B43F8202000BFEBE701460E4A8A
:103FE000126810690F2800D970470C4A126802B194
:103FF000FAE70B4A52F82020521A094B43F82020C6
:1040000000BFF1E701460F2901D90120704704489C
:1040100050F82100FAE7000050060020D0060020EA
:1040200034890020014601F0004010B16FF070406B
:1040300070475E480840002847D001F0FE40F8B1C4
:1040400001F0E04058B101F0804008B11E20EFE7D8
:1040500001F0005008B11D20EAE71C20E8E701F05C
:10406000406030B101F0006008B11B20E0E71A2089
:10407000DEE701F0007008B11920D9E71820D7E772
:1040800001F4700080B101F4400030B101F400008F
:1040900008B11720CCE71620CAE701F4001008B1D8
:1040A0001520C5E71420C3E701F4402030B101F426
:1040B000002008B11320BBE71220B9E701F400305B
:1040C00008B11120B4E71020B2E701F47F4020B31B
:1040D00001F4704080B101F4404030B101F400407F
:1040E00008B10F20A4E70E20A2E701F4005008B1A8
:1040F0000D209DE70C209BE701F4406030B101F4F6
:10410000006008B10B2093E70A2091E701F40070EA
:1041100008B109208CE708208AE701F0F00080B19F
:1041200001F0C00030B101F0800008B107207FE746
:1041300006207DE701F0200008B1052078E7042083
:1041400076E701F00C0030B101F0080008B103205F
:104150006EE702206CE701F0020008B1012067E77A
:10416000002065E710B5024614462046002305E00E
:1041700001464960096000BF5B1C08301B2BF7D368
:1041800010BD2DE9F04105460E462F463046FFF79B
:1041900049FF04461E2C02D90020BDE8F081042C02
:1041A00000D80424201F07EBC000F6E70000FF7FC3
:1041B00002465018401E904204D95018401E4B1E13
:1041C00098437047481E22EA0000FAE770B504469B
:1041D00000250948006800B170BD0CB9002505E054
:1041E0002046FDF796FD054605B901252846FEF750
:1041F00086FB00BFF0E70000D00600202C480068D6
:1042000040F470002A49086070471020294908606E
:1042100029482A490860704710B500F0E9F80446BB
:104220000CB1204610BD00F04BF82046FAE710B55F
:10423000FFF7EBFFFFF722FC04460CB1204610BD50
:1042400000F05FF9FDF711FF04460CB12046F6E7D8
:10425000FFF773F904460CB12046F0E7FEF77DFC4A
:1042600004460CB12046EAE7FEF735FE04460CB1E1
:104270002046E4E7FDF71CFB04460CB12046DEE7D0
:10428000FEF72EFCFEF784F804460CB12046D6E774
:104290000020D4E710B5FFF7CAFF04460CB1012097
:1042A00010BDFCF739F8FFF7B7FF00BFFEE7704716
:1042B00088ED00E05C06002034890020C80600205C
:1042C000124C134D256013484FF0010101604FF06F
:1042D000020080F31488104842680F4802600E4BB9
:1042E000186887884FF0100847EA08078780D0F8D9
:1042F00000C00CF1240CBCE8FF008CF30988AE462A
:1043000087F3038862B6304700BF000020ED00E06D
:104310000000F0F0880600205006002010B500F0E4
:10432000D0FA10BD10B500F0C1FA0446FDF742FA0C
:104330003C382C494860084600684968884208D0E3
:104340002948008828B9204600F0B8FA00F0B9FAE8
:1043500010BD204600F0B2FA00BFF9E772B600BF08
:10436000FEE730B50446012304E04FF0CA3542F8B9
:1043700023505B1CB3EB910FF7D34FF0CC35156096
:104380005518A5F144004FF0043505604FF0053590
:1043900045604FF0063585604FF00735C5604FF03A
:1043A000083505614FF0093545614FF010358561DD
:1043B0004FF01135C5610025056244624FF00135AB
:1043C00085626D00C5624FF0033505634FF012350D
:1043D0004563AFF277058563044DC5634FF0807583
:1043E000056430BD5006002058060020172500083F
:1043F00028482949C86329482949C86329482A49BE
:1044000008600021294A11605160401E4FF0E021F0
:10441000486170202649087000204FF0E021886133
:1044200007200861002070472DE9F84F8046894633
:1044300000F03CFA00901D49C0C94FF0E020D0F8D0
:1044400018B01B481F38D0F800A00AF0806030B1C7
:104450004FF0E020D0F818B0761C47F10007124862
:1044600000680022A6FB00C307FB003006FB020128
:104470000D480068A0EB0B001CEB000441EB0205AB
:10448000C8F80050C9F80040009800F017FABDE8DD
:10449000F88F0000BD44000800000020B92A000881
:1044A0007489002040190100CC06002090060020ED
:1044B00023ED00E0FBF7B8FE00BFFEE770B500F0AB
:1044C000F5F905464D480068401C4C4908602846EF
:1044D00000F0F4F9FBF7A8FE0446494850F8240020
:1044E00018B1474951F82400804700F0DFF905462C
:1044F00042480068401E41490860284600F0DEF945
:1045000070BD102005E0AFF253013E4A42F8201082
:10451000401CFF28F7D93B493B4A11603B49121D1B
:10452000116070472DE9F04704460D4691461E463E
:10453000089F16B93648BDE8F087F02C02D33448FE
:10454000401EF8E72F4904F1100051F82000AFF2A7
:104550009B01884202D02E48C01CECE70F2D02DDE3
:104560002B48001DE7E700F0A1F98046AFF2B30148
:10457000244A04F1100042F82010214941F820603B
:1045800000BF04F01F01012088406109890001F18A
:10459000E021C1F8000100BF00BF802040EA051003
:1045A000C1B204F1E02080F8001400BF404600F0E2
:1045B00085F90020BFE770B50446F02C02D31448FB
:1045C000401E70BD00BF04F01F010120884061093A
:1045D000890001F1E021C1F8800100BF00F066F917
:1045E0000546AFF22F11074A04F1100042F82010DF
:1045F000284600F063F90020E3E70000D006002021
:10460000748900200000002008ED00E00007FA0592
:104610000109000253EA020C00F069802DE9F04B19
:104620004FF00006002B1FBFB3FA83F503FA05F421
:1046300024FA05F65E4012BF1643B2FA82F502FA7A
:1046400005F4C5F120051EBF22FA05FC44EA0C045E
:10465000203556EA044C4FEA144418BF641C4FF04E
:1046600000084FF00009904271EB030C39D3002988
:1046700019BFB1FA81F701FA07F6B0FA80F700FA2C
:1046800007F6C7F120071EBF20FA07FC46EA0C0612
:104690002037B6FBF4FCA7EB0507103F07F01F0B14
:1046A000CBF120060CFA0BFB2CFA06F644BFB346FE
:1046B0000026202FA4BF5E464FF0000B5BEA060CDD
:1046C00008BF4FF0010B19EB0B09ABFB027C48EB69
:1046D0000608C01B06FB02CC0BFB03CC71EB0C01E4
:1046E000C1E70B46024641464846BDE8F08B13B58C
:1046F0004FF000004FF00001AFF30080BDE81C4018
:104700007047032A40F2308010F0030C00F015804F
:1047100011F8013BBCF1020F624498BF11F801CBC4
:1047200000F8013B38BF11F8013BA2F1040298BF29
:1047300000F801CB38BF00F8013B11F0030300F093
:104740007180083AC0F0088051F8043B083A51F8EB
:1047500004CBA0E80810F5E7121D5CBF51F8043B3C
:1047600040F8043BAFF30080D20724BF11F8013BAF
:1047700011F801CB48BF11F8012B24BF00F8013B11
:1047800000F801CB48BF00F8012B70474FF0000242
:104790000429C0F0128010F0030C00F01B80CCF153
:1047A000040CBCF1020F18BF00F8012BA8BF20F8C1
:1047B000022BA1EB0C0100F00DB85FEAC17C24BF15
:1047C00000F8012B00F8012B48BF00F8012B7047BF
:1047D0004FF0000200B5134694469646203922BF9A
:1047E000A0E80C50A0E80C50B1F12001BFF4F7AFE5
:1047F000090728BFA0E80C5048BF0CC05DF804EBC7
:10480000890028BF40F8042B08BF704748BF20F834
:10481000022B11F0804F18BF00F8012B7047704732
:104820007047704710B5203AC0F00B80B1E81850BF
:10483000203AA0E81850B1E81850A0E81850BFF48A
:10484000F5AF5FEA027C24BFB1E81850A0E8185029
:1048500044BF18C918C0BDE810405FEA827C24BF7D
:1048600051F8043B40F8043B08BF7047D20728BF0B
:1048700031F8023B48BF11F8012B28BF20F8023B5A
:1048800048BF00F8012B704710B50446AFF3008015
:104890002046BDE81040FBF7C1BC000001491820CC
:1048A000ABBEFEE72600020070470000EFF3108069
:1048B00072B67047EFF3108062B6704780F31088CD
:1048C000704717484FF0805101607047EFF3108C2C
:1048D00072B6144A12681AB100B590475DF804EB3D
:1048E000EFF3098020E9F01F0F4D2E683060B78884
:1048F0004FF0100827EA0807B7800B484068286087
:1049000087884FF0100847EA080787800168B1E8F8
:10491000F01F81F309888CF31088704700BF0000F6
:1049200004ED00E08C060020500600202DE9C04177
:1049300030B4DFF8A0C23CEA111418BF3CEA1314EB
:1049400000F0EC8081EA03051CEA111444EAD574F6
:1049500018BF1CEA131500F0C780A4EB05044FF044
:10496000004545EAC12145EAC32341EA505143EAE3
:10497000525304F17F74994204F500344FEAC02089
:104980004FEAC22208BF904200F09C804FEA1365B4
:104990000FF24016765D4FEA134506FB05F7C7F1A7
:1049A000807706FB07F74FEAD737A7FB0368764205
:1049B000C8F58038A7FB06CE38BFA8F1010807FB71
:1049C00008E64FF0000EA6FB028CE6FB03CEDCF1FE
:1049D000000CCEF1004E38BFAEF1010EA6FB0C5814
:1049E0004FF000074FF00005E6FB0E87A1FB08C65D
:1049F000A0FB07CE16EB0E0645F10005E1FB0765AF
:104A000015F1E04E7EBFA4F580345FEA46066D41A5
:104A100016F1800745F100054FEA17274FEA0666B1
:104A200047EA0567A6F1DE46B6F1805F4FEA152535
:104A30001FD9384624F0010C05EBC471BCF1FE6FA0
:104A400001EB0C1102D8F0BCBDE8008124425CBF30
:104A500001F5801E9EEAC47F02D4F0BCBDE800814F
:104A6000244238D4F0BCA1F1C041BDE8004100F0BF
:104A700048B94FEAD22242EA43524FEAD323A7FB76
:104A800002864FEAD02040EA415007FB03661EEA47
:104A90000E0F4FEAD12105FB026658BFA6EB005668
:104AA000B6EB00564FEA520E4EEAC37E18EB0E0EDE
:104AB00056EB530EBDD518EB02085E417F1C55F135
:104AC0000005B6E74FF480154FF000074FF00006E1
:104AD0004FF00008ADE7F0BC4FF0000001F1C0411D
:104AE00001F00041BDE8008111EA0C1F0CEA13152A
:104AF00000D00CE013EA0C1F00F025804FF00000FE
:104B0000F0BC81EA030101F00041BDE80081F0BC86
:104B1000BDE8004181EA030100F0F3B8F0BCBDE854
:104B2000004170B500F09FF8097EFC3E00F007B828
:104B300081EA03014FF0000001F00041704781EA73
:104B4000030100F0DEB8F0BCBDE800414FF000000A
:104B500021497047FFFDFBF9F7F5F4F2F0EEEDEBBC
:104B6000E9E8E6E4E3E1E0DEDDDBDAD8D7D5D4D36B
:104B7000D1D0CFCDCCCBCAC8C7C6C5C4C2C1C0BFB7
:104B8000BEBDBCBBBAB9B8B7B6B5B4B3B2B1B0AFBD
:104B9000AEADACABAAA9A8A8A7A6A5A4A3A3A2A1A1
:104BA000A09F9F9E9D9C9C9B9A999998979796955C
:104BB00095949393929191908F8F8E8E8D8C8C8BF8
:104BC0008B8A898988888787868585848483838280
:104BD000828181800000FF070000F87FB1FA81F335
:104BE0000B3B20D3994010D1B0FA80F310FA03F1B7
:104BF00008BF7047C3F11D0303F580634FEAD1225C
:104C00004FEA415002EB03517047C3F1200C20FAE8
:104C10000CFC9840C3F1320303F5806341EA0C01B8
:104C200001EB0351704710B5C3F10004C3F1320C1E
:104C3000C4F1200E0CF5806201FA0EFC21FA04F199
:104C400000FA0EF3E040BDE8104040EA0C0001EB32
:104C5000025138BF7047401C41F100015B0008BFA2
:104C600020F0010070470EF1020E2EF0030E5EF8E8
:104C7000046B364205D4012A43EB030515F5001FEA
:104C800012D8012841EB010C1CF5001F0CD80ED1E5
:104C90004FEAD17C15F5001F0CEB4C0C0CF1020C0B
:104CA00008BF4CEBD37C04E04FF0080C01E04FEA66
:104CB000D37C0CEB4C0526FA05F606F00706B6F198
:104CC000040C06D20EEB860CBDE870404CF0010CD3
:104CD0006047DFE80CF0090B02024FF000414FF093
:104CE0000000A1F5002170BD19461046012851EBC6
:104CF000010418BFD4F5001484BF002001F0004166
:104D000070BD0808A0F500114FEA3101704700009E
:104D10004FEAC1230A1543EA50534FEAC02C18BF8B
:104D200043F000431BD4A2F24E02D2F57C72C0F2D3
:104D30002080502AA8BF502223FA02F12CFA02F058
:104D400060B4D2F1200284BF03FA02F52843C2F115
:104D500000029CBF23FA02F5284360BC704701F1B2
:104D6000804212F5801F04DA4FF000004FF000017E
:104D7000704770B5FFF777FF49922480002001E06B
:104D80006FEAE17001467047B84D0008000000204E
:104D9000000400006C010008D44D0008000600204B
:104DA000D4000000C8010008A84E0008D406002066
:104DB000A48C0000E40100084113190B0C1008B585
:104DC00044040110A9180B14CD482401FF01FF0170
:104DD000FF01B3000000000000A24A040000000030
:104DE000000000000102030406070809000000009B
:104DF00000000000000000000001020304010203A3
:104E0000040607080902040608000000000000006C
:104E10000000000000000000000000000000000092
:104E20000000000000000000000000000000000082
:104E30000000000000000000000000000000000072
:104E40000000000000000000000000000000000062
:104E50000000000000000000000000000000000052
:104E60000000000000000000000000000000000042
:104E70000000000000000000000000000000000032
:104E80000000000000000000000000000000000022
:104E90000000000000000000000000000000000012
:084EA00000000000000000000A
:0400000508000131BD
:00000001FF
